:020000040000FA
:1000000070900420E9190000A74C0000BD19000001
:10001000BD190000BD190000BD190000BD19000088
:10002000000000000000000000000000C5160000F5
:10003000BD19000000000000BD190000BD1900003E
:1000400021170000211700002117000021170000D0
:1000500021170000211700002117000021170000C0
:1000600021170000211700002117000021170000B0
:1000700021170000211700002117000021170000A0
:100080002117000021170000211700002117000090
:100090002117000021170000211700002117000080
:1000A0002117000021170000211700002117000070
:1000B0002117000021170000211700002117000060
:1000C0002117000021170000211700002117000050
:1000D0002117000021170000211700002117000040
:1000E0002117000021170000211700002117000030
:1000F0002117000021170000211700002117000020
:10010000211700002117000021170000211700000F
:1001100021170000211700002117000021170000FF
:1001200021170000211700002117000021170000EF
:1001300021170000211700002117000021170000DF
:1001400021170000211700002117000021170000CF
:100150002117000053B94AB9002908BF00281CBF65
:100160004FF0FF314FF0FF3000F00CB8ADF1080C4C
:100170006DE904CE00F008F8DDF804E0DDE90223C3
:1001800004B07047704700BF2DE9F04786468C46A3
:100190000846089E154674461946002B40F0C1805B
:1001A0008542B2FA82F245D94AB1C2F1200300FA7F
:1001B00002FC954094402EFA03F343EA0C0C4FEAFC
:1001C000154EA8B2230CBCFBFEF80EFB18CC08FBA6
:1001D00000F943EA0C43994528D9EB1808F1FF3799
:1001E00004D2994502D9A8F102072B44A3EB0903D5
:1001F000A4B2B3FBFEFC0EFB1C330CFB00F044EA84
:100200000344A04214D92C190CF1FF3304D2A042AC
:1002100002D9ACF102032C44241A43EA07401EB170
:10022000D440002334607360BDE8F0874746DDE7C3
:100230006346F1E792BB431B01214FEA154EAFB273
:10024000200CB3FBFEFC0EFB1C330CFB07F840EA52
:100250000343984561D9EB180CF1FF3004D298455F
:1002600002D9ACF102002B44A3EB0803A4B2B3FB08
:10027000FEFC0EFB1C330CFB07F744EA0344A742C9
:100280004DD92C190CF1FF3304D2A74202D9ACF19D
:1002900002032C44E41B43EA0040C0E7C2F1200300
:1002A0009540944020FA03F12EFA03F34FEA154EDD
:1002B0009040AFB20343B1FBFEFC0EFB1C10190CC7
:1002C0000CFB07F841EA0041884522D969180CF176
:1002D000FF3004D2884502D9ACF102002944A1EBD9
:1002E00008019BB2B1FBFEFC0EFB1C110CFB07F7D7
:1002F00043EA01439F420ED9EB180CF1FF3104D2BF
:100300009F4202D9ACF102012B44DB1B41EA0041C0
:1003100093E76046E3E76146F7E76046A4E7634694
:10032000B8E7834206D916B9002108467CE7C6E93A
:1003300000E0F9E7B3FA83F78FB9834201D372453E
:1003400008D8BEEB020460EB030301209C461EB9F3
:10035000002169E73846FAE7C6E9004CF8E7C7F13B
:10036000200CBB400EFA07F522FA0CF42EFA0CF121
:10037000BA401C4320FA0CF3B8404FEA1449014339
:100380001FFA84FEB3FBF9F809FB18300B0C08FBCD
:100390000EFA43EA00439A4540D9E31808F1FF30CA
:1003A00004D29A4502D9A8F102002344A3EB0A0320
:1003B00089B2B3FBF9F809FB183308FB0EFE41EADA
:1003C00003418E452CD9611808F1FF3304D28E45C4
:1003D00002D9A8F10203214443EA0040A1EB0E0137
:1003E000A0FB02984145CE46434602D306D14D4577
:1003F00004D20138B9EB020E68EB0403002EA7D03B
:10040000B5EB0E0261EB030101FA0CFC22FA07F3D3
:10041000F9404CEA0303C6E9003199E74046C5E7D5
:100420004346D9E7F0B52E4B2E4A85B0C2F80036C8
:10043000C2F80436C2F80836C2F80C36C2F81036D4
:10044000C2F81436C2F81836C2F81C3602F58052CB
:10045000C2F80036C2F80436C2F80836C2F80C36C4
:10046000C2F81036C2F81436C2F81836C2F81C3674
:1004700000F03CF801A800F04BFE1B4B1B688342C8
:1004800000D0FEE74FF40041002002F0D1FB04460B
:1004900000B1FEE702F070FC69469DF8080004F028
:1004A000E9F8009B039D1D44019B1E8902F0A8FBF7
:1004B000AF1900F059FE00F03BFE01F0C5FA84F3DD
:1004C0000B8884F30A88AB5983F3088884F3148873
:1004D000BFF36F8FBFF36F8F7B689847FEE700BF56
:1004E0003546526E00800150E82000204FF4C05184
:1004F000014802F0C7BE00BF684700202DE9F04F59
:10050000DFF8C0A1F9B038A8DDE9847816461C46AA
:10051000DDF818B2DAF8005006F0CCF8002138A85F
:1005200002F0C4FF3FB1B8F1000F04DD4246394686
:1005300038A806F0C3F84FF00008738937891F44C4
:10054000F3681F44474546D80DA938A806F0FAF8C5
:10055000BBF1000F04D0202258460DA904F0F7FB90
:1005600000232246009331464FF6FF7307A804F09C
:100570009EF8804660BB20460C9E04F039F9864206
:1005800026D84FF0FF37DFF840910DF1160305AA8A
:1005900006A907A804F0D9F8002819DB40F08A80E2
:1005A000BDF81660102E2ED1BDF81460202E0FD18C
:1005B00033462046069938AA04F0FBFA40B9324681
:1005C00038A90DA804F00DF9404B1B68834217D0E1
:1005D000DAF8005071E0839BA7EB0809994528BF22
:1005E000994641464B462046829A04F0E2FA00289A
:1005F000EED14A46829938A806F060F8C844A1E7CF
:100600004FF00108C1E7012E35D1BDF81430202B81
:10061000DED82046069938AA04F0CBFA074600280F
:10062000D6D19DF814B0BBF1200F02D94FF0FF379F
:10063000ABE7D9F80030264E0393039B9F42F5DACF
:100640001DA806F037F800211DA802F02FFF7268E0
:100650001DA8126856F8081B06F030F815A91DA849
:1006600006F070F85A4638A915A804F049FB00288E
:100670008BD00137E1E7202E87D17B1C85D0D9F8BC
:100680000030BB42D2DDBDF81430B3F5807F9FD17E
:100690002046069938AA04F08CFA002898D1FFB2B7
:1006A0003146BDF81430009738AA0DA800F012F8B2
:1006B0000546BBE7B8F1000F8AD0284679B0BDE8FF
:1006C000F08F00BF08200020E86E0000E820002026
:1006D000EC6E00002DE9F04FDFF8B4A1ADF54D7DD3
:1006E000074629A89DF858B3894690461E46DAF871
:1006F000005005F09CFF674B8CAA53F83B4003EB7E
:10070000CB035B6804941B6804A81C442146302377
:1007100004F0B4FD70BB049B8C9A13449C4229D115
:1007200021462BAA04A804F0BDFD18BB0DF1B80B9F
:100730005A46214604A804F0B5FD0390D0B92BA871
:1007400004F0A7FE049A2A90944213D1039BCDF89B
:1007500004B01A4600932BA929A805F025FF48B933
:1007600029A802F035FE28B92BA804F092FE864293
:100770002A900AD029A805F064FF29A805F061FF96
:1007800028460DF54D7DBDE8F08FB6F5807FDAF88F
:1007900000507BD1B9F1200F78D141468CAA29A80D
:1007A00002F03CFE0446002870D19DF82F33BC2B8C
:1007B0006CD1DF2605900DF5A8790EA805F07AFF1B
:1007C00000210EA802F072FE20220DF20F310EA8B9
:1007D00005F074FF042205A90EA805F06FFF06A915
:1007E0000EA805F0AFFF202EB046A8BF4FF020089E
:1007F0009DF8173048460133424606A9A6EB080685
:100800008DF8173004F0A3FA002EC144D5DC54ABA8
:10081000184600219C468CAA067812F801EB01319B
:1008200086EA0E06DF2900F8016BF5D11A7802F08E
:100830007F021A7013F8016B46BB0134BE2CF9D14C
:100840009CF8BE30012B21D10EA805F033FF3146B4
:100850000EA802F02BFE08220F490EA805F02EFF6D
:10086000394620220EA805F029FF20220DF20F2183
:100870000EA805F023FF06A90EA805F063FF2022AD
:100880000DF20F3106A803F0ACFF054675E700BF77
:1008900008200020EC6E0000BE7200002DE9F04F31
:1008A000584B89B0044690F8B8000E461D6803F016
:1008B000E7FE06A98046C0B200F028FE00286FD1EE
:1008C00094F8B8703146384603F0DAFE4FF02C0940
:1008D00007A9C0B209FB06F900F018FE002845D0B0
:1008E0004FF0580B2C220BFB07F302FB063323447B
:1008F0001B6913F0100A4ED1314694F8B80002F08B
:1009000059FA0546404B1B68984212D14FF4807348
:1009100007FB0B920193CDE903AA3C4BCDF808A04D
:1009200000935046069B94F8B8102244FFF7E6FD6A
:10093000054658235F432C2303FB0677344AE159CD
:100940000698914204EB07030AD1DA681B899B18C9
:1009500006D28268934203D22E4B1B68AB4223D04F
:10096000CEB10021826804F04EF914E0079804F03B
:1009700065F90546079804F01BF9582394F8B82048
:1009800002FB039323445A1E033312F8011FA942AA
:10099000A6D19A42F9D1204B1D68069804F008F9B7
:1009A000284609B0BDE8F08F94F8B83043B3012B66
:1009B0000CBF0822FF229045EFD158225343E21882
:1009C000176A002207922C2202FB0633234419895E
:1009D000042307AA194404F0ECF80028DBD194F8AA
:1009E000B8300799012B0BBF0C4AD7E901234FF010
:1009F00082739B18914201D39942CED90698B0E7F1
:100A00000222D8E70820002000200020685F002094
:100A10003DB8F396E8200020042000200088000163
:100A20002DE9F84F884691469A460026DFF88CB0AB
:100A3000234D244C0B9B9E4201D300200FE00B9BC7
:100A400040469F1BB7F5806F28BF4FF480671B4A55
:100A50003B4606EB0A0104F0ACF810B10120BDE8FA
:100A6000F88F0A993B465A464846711804F0B6F882
:100A70000028F3D1144BC5F800463E44C5F804469F
:100A8000C5F80846C5F80C46C5F81046C5F8144622
:100A9000C5F81846C5F81C46C3F80046C3F8044616
:100AA000C3F80846C3F80C46C3F81046C3F814460A
:100AB000C3F81846C3F81C46BCE700BFEC40002052
:100AC000008001503546526E009001502DE9F04FE4
:100AD000002604460D46B0465827DFF8CC92DFF8D2
:100AE000CCA295B0012E84F8B86007D9B8F1000FF8
:100AF00000F0408100202C265827CDE0A31993F860
:100B0000B91000294BD107FB064309EBC6225A62F4
:100B10000AEBC6221A65304603F0B2FD94F8B8100D
:100B2000C0B207FB0141203100F0F0FC012130464A
:100B300003F0A6FD94F8B810C0B207FB01414C3198
:100B400000F0E4FC204603F086FE00BB00222046B5
:100B5000114603F0AEFE834690B9204603F00AFF2B
:100B600070B10AA803F0D4FE03F0DBFE064660BBBA
:100B700094F8B830C3B9002120460AAA03F099FEC0
:100B8000012294F8B830234483F8B02007E0012212
:100B900094F8B8309042234483F8B020D6D194F82A
:100BA000B8600136F6B29DE794F8B020042A04BF7D
:100BB000012284F8B020012BDDD094F8B130042B51
:100BC000D9D1012384F8B130D5E79DF82F30012B1E
:100BD0004AD1582294F8B830CDF838B002FB03431C
:100BE000734AD96AD86C914216D094F8B80002F0D2
:100BF00089F9831E022B834618D801212046FFF76E
:100C00004DFE6C4B1B68984210D06B4B1B68984292
:100C10000AD14FF0010B09E0998E04230EAA194462
:100C200003F0C7FF0028E0D04FF0050B94F8B83070
:100C3000234483F8B0B094F8B8306BB1E21892F85E
:100C4000B020012AABD0042A0CD094F8B020042A9A
:100C500002D1012284F8B020234493F8B030023B43
:100C6000022B9CD8B0469AE701212046FFF716FEDA
:100C7000504B1B68984218BF052294F8B83008BF43
:100C80009DF82F20234483F8B020D4E7231893F84D
:100C9000B92032B10130C0B2012884F8B800F5D9CA
:100CA00068E093F8B08008F0FB08B8F1010818BFBD
:100CB0004FF00108414603F0E3FC05A9C0B200F083
:100CC00025FC00287CD1012306FB08F894F8B81015
:100CD000059A17FB01810093214440230EA803F0DD
:100CE000E6FC804600286DD100230DF1120206A912
:100CF0000EA803F02AFD00283CDB05986FD1BDF853
:100D000012300C2B69D1069907AA03F052FF002874
:100D10006ED19DF81C30012B6DD8E21892F8B020EE
:100D20007B43023A022A8CBF0022012206FB0233D7
:100D30002344197D9DF820209142D5D80AD3597DAE
:100D40009DF821209142CFD804D3DA8ABDF8223011
:100D50009A42C9D294F8B8300598234493F8B02049
:100D6000012A1FD0023A012A02D8012283F8B020BA
:100D700003F01EFF00264FF0FF085827012E84F8CD
:100D8000B8603BD90023DFF834800A4E0A4F0E9337
:100D9000012B84F8B83040F245810E9A022A00F007
:100DA0009481FEE70422E1E7EC300020EC200020F3
:100DB0003DB8F396E8200020042000200820002001
:100DC0000598D5E7059803F0F3FEB8F1030FD1D1EC
:100DD00040F20113A4F8B030CCE74FF003080598B7
:100DE00003F0E6FEB8F1000FEFD194F8B80051E738
:100DF0004FF00108F3E74FF00708F0E7A21992F867
:100E0000B930002B40F009810AA803F081FD92F867
:100E1000B030042B8DF82F3006D8012B06D800F007
:100E2000AD8082F8B080A9E0052BF8E707FB064308
:100E3000194630462C31DA6C04F056F90128014687
:100E400040F09C8094F8B80003F01AFC07A9C0B2E7
:100E500000F05CFB002800F099804FF00009079833
:100E600003F0A6FE94F8B80007A9002800F0CD8092
:100E7000012800F0C680FF2000F048FBFF2000267C
:100E80004FF0580BB2460EA900F040FB94F8B83072
:100E90000BFB03439B6A534519D094F8B8203146A5
:100EA0000BFB0242526A079802EBCA025268039394
:100EB000029203F0A8FE029A039B16444E45C0F02E
:100EC000A980D4F8B460B9FBF6F906FB0966D4F83A
:100ED000B40003F088FC582394F8B82003FB0242C6
:100EE000536A926A1968013A03EBC2030022D3F8ED
:100EF00004E09C4672449042A3F10803F7D8DCF862
:100F000000300798591A03F07EFE00232046079A06
:100F10000E9901960093FFF783FD78BB079801F0C7
:100F20007BFF58BB4FF0580994F8B800324609FBD4
:100F30000043196A04F0E6F80146F8B994F8B830AD
:100F40000E9809FB03431B6D5A6803F05CFE94F88E
:100F5000B83009FB0343D3E91423013B52F83310A3
:100F600002EBC30013684268C91A0E9803F04BFEE7
:100F7000079803F01DFE0E9803F01AFE94F8B8309F
:100F8000234493F8B030FF2B47D1FEE794F8B830F4
:100F9000079807FB03439E8E9B6B0EAA1E443146A7
:100FA000042303F006FE00287FF457AF94F8B8300E
:100FB000BDF8382007FB0343B3F836A046F6081304
:100FC0009A42079819D1BDF83A309A457FF445AF57
:100FD00004230EAA0AEB060103F0EBFD00287FF4C0
:100FE0003CAF46F60713BDF838209A427FF435AF80
:100FF000BDF83A90D144B14431E7BAF1000FF0D0D6
:101000002BE700F083FA082039E7042000F07EFA8D
:10101000022034E70AF1010A3DE794F8B86001368E
:10102000F6B2ABE6234493F8B9208DF81C209DF866
:101030001C2002F0FF013AB10E9B01330E9394F88D
:10104000B8300133DBB2A3E693F8B030012B15D0F2
:1010500020460AAA03F02DFC80B1D8F800501022D7
:1010600000210AA803F07EFE58260023012B84F8F5
:10107000B83015D9284615B0BDE8F08F00212046BC
:10108000FFF70CFC33688342E7D1D8F800209A427E
:10109000E3D03A689A42CFD1DFE784F8B82031E054
:1010A000E21892F8B9205AB906FB0343D86C03F052
:1010B0007FFD94F8B83006FB0343186A03F078FD0F
:1010C00094F8B8300133DBB2D0E794F8B93023B1EB
:1010D00094F8BA30002BE0D10123582606FB0342D6
:1010E00084F8B830106A03F0E0FA287194F8B83048
:1010F00006FB03431B6A5B68AB6094F8B83003FBE4
:1011000006462E60014B1D68A9E700BFE8200020BD
:1011100038B5064D0446BC220021284603F022FEC5
:1011200021462846FFF7D2FC38BD00BFEC44002022
:10113000BFF36F8F72B600234FF0FF30094A03F1FF
:1011400020010133102B42F82100F8D100234FF089
:10115000FF30044A03F160010133102B42F82100F3
:10116000F8D1704700E100E038B501224FF0FF34BC
:1011700000251A4B29465A60C3F84843C3F8084370
:1011800003F580535A60C3F84843C3F80843A3F5F6
:101190005043C3F800558022C3F80843104803F0B9
:1011A000E1FD802229460F4803F0DCFD0E4B802232
:1011B000C3F800552946C3F808430C4803F0D2FD94
:1011C000802229460A4803F0CDFD0A4BC3F80845A2
:1011D0004FF05023C3F8084338BD00BF0040015012
:1011E000808000508081005000900050809000501E
:1011F00080910050007001502DE9F047058B0446A6
:101200002807904611D4022905F0070540F0CD804B
:10121000204603F0F3FB78B10138218B042811D864
:10122000DFE800F0C3106D85950001290CBF45F083
:10123000100545F02005258388F31188BFF36F8FD3
:10124000BDE8F08701F0070AAA4500F0A680002754
:10125000B9463E46A368002B00F0BD8041F008016E
:10126000218388F31188BFF36F8FA168002900F0F4
:10127000BB800D68002900F0B780334652462046F7
:10128000D1F80480C047002D76D02B6829461D4632
:10129000F0E701F007035A1F012A1BD8002221F0B2
:1012A0000701062B276889B2C4E9002209D13B4611
:1012B00003E0628B013262831B68002BF9D141F09D
:1012C00002012046218303F099FB00287BD041F0E6
:1012D000200177E0042B0AD121F0070189B22046D2
:1012E000218303F08BFB10B141F020012183218B7E
:1012F00001F0070AAA4550D00027B946AAE723699A
:1013000021F0070141F00601062DD3F8009021835A
:101310002DD1B9F1000F40D041F00801218388F3AD
:101320001188BFF36F8F20463949C84729E021F063
:101330000701236941F0040189B2042DD3F8049018
:101340002183E6D000274FF0040A3E4682E721F0D1
:101350000701236941F0050189B2052DD3F80890F2
:101360002183D6D000274FF0050A3E4672E70027BA
:101370004FF0060A3E466DE72B4687E7B9F1000FAE
:10138000D1D14FF02003EFF3118883F31288BFF31C
:101390006F8F238B23F008032383258BEA062ED53A
:1013A00025F01003238305F007056669218B002EC5
:1013B000BFF66FAF00232768C4E9003321F00701AF
:1013C00041F001012183218B4FF0000901F0070A50
:1013D000AA457FF43FAF002F9BD041F00801218345
:1013E00088F31188BFF36F8F002FC7D03D6839464F
:1013F00033465246204603F02DFB2F46F4E7AB065A
:101400007FF51AAF25F02003238305F00705FFE6DB
:10141000814A0000054B03EB8000D0F8003223F036
:10142000E04343F04053C0F8003270470025845039
:1014300010B54FF02003EFF3118483F31288BFF34C
:101440006F8F01220C4B0D49C3F8002502230020A9
:10145000C1F8D036FFF7DEFF1046FFF7DBFFC1F81B
:101460000427C1F80429C1F8002B84F31188BFF3C5
:101470006F8F002010BD00BF0010005000400050D2
:10148000052370B5144D154E2C780134B4FBF3F3DD
:1014900003EB8303E41A03F023FE114A137823B10C
:1014A00056F82430C01A072814D94FF05023D3F827
:1014B000141141B10021C3F81411D3F814312C7068
:1014C0000CB9012313702C7803F00AFE46F82400AF
:1014D000012070BD0020FCE769600020A8450020C5
:1014E0006860002048B1054B054A1B68B3FBF2F366
:1014F0005843044B43F00103184770471C20002059
:1015000040420F00E06E000002F0ECB870B5114BE5
:101510000D461C68DCB1104B196800238B4202DBBE
:101520006FF0010070BD224612F8106B864202D0A7
:1015300014460133F2E7E06810B96FF01200F1E7EA
:1015400005F0D2FA0028F8D000202C60EAE76FF00E
:101550000C00E7E70C200020F86E000070B588B0A2
:1015600005460C46C0B269461646FFF7CFFF002875
:101570001BDB0098C8B14368226802938368019519
:10158000CDE903360023CDE906230593C56803F0B2
:101590000FFB6DB12846084901AA03F053FD0798D7
:1015A00008B9059B236008B070BD6FF01500FAE71D
:1015B0006FF01200F7E700BF4B4C0000014802F04B
:1015C00049BF00BFBC6F0000014910220A6070478C
:1015D00010ED00E072B6494081F3118801B5FFF7C4
:1015E0004FFF002802D0BFF34F8F20BFBDE801405E
:1015F00080F3118862B6704740B2002807DB0123F0
:101600004109034A00F01F00834042F8213070472F
:1016100000E100E040B200280CDB0122064943094A
:1016200000F01F008240203341F82320BFF34F8F8A
:10163000BFF36F8F704700BF00E100E0054B420928
:1016400053F82220012300F01F0003FA00F010409D
:10165000704700BF00E100E040B2002801F1010145
:10166000ACBF00F16040064B4FEA4111C9B2ABBFBD
:1016700000F5614000F00F0080F800131954704726
:1016800014ED00E030BFFFF7FDBF00BF0B4A08B507
:101690000B4B22F07F029A60BFF34F8FBFF36F8F27
:1016A000D3F8882022F47002C3F8882002F004FDE9
:1016B00002F04AFD00F08CF902F00AFD0000000083
:1016C00000ED00E01EF0040F0CBFEFF30880EFF315
:1016D0000980816911F8021C0229FFD001B503F0CD
:1016E000DAFA01BD0446084611461A46002383F380
:1016F0000B880A4B2025A3F5205686F30B8883F32D
:10170000098863B64FF0000383F31188BFF36F8F2E
:10171000A04785F31188BFF36F8FFEE77090042018
:1017200001B5EFF30580A0F110004FEAC0000449B5
:10173000014409C99847BDE8014002490847000033
:101740004C6C000049170000704700BF154B9A6AA7
:1017500012F0007F9A6A14BF1E201D2012F0807FB5
:101760009A6A18BF1F2012F4801F9A6A18BF0220BD
:1017700012F4002F9A6A18BF212012F4802F9A6A5F
:1017800018BF222012F4003F9A6A18BF232012F4D7
:10179000803F9A6A18BF24206FEA02426FEA124221
:1017A0009A62704700ED00E010B5194B0246986A46
:1017B0009C6A10F4805F14BF1720162014F4006F89
:1017C0009C6A18BF1820A40509D5986B986A000474
:1017D00004D51AB19A6A22F400429A6219200C4B7D
:1017E0009A6A12F4806F9A6A18BF1A20D2050CD434
:1017F0009B6A13F4005F18BF1C20054A936A43F4E8
:101800007F43936200230B7010BD1B20F5E700BFE0
:1018100000ED00E010B51C4B0246986A9C6A10F07F
:10182000100F14BF1120102014F0080F9C6A18BF6D
:101830001220A40709D5586B986A000604D51AB17E
:101840009A6A22F080029A6213200F4B9A6A12F071
:10185000010F9A6A18BF142012F0200F9A6A18BF5D
:101860001520D40658BF9B6A074B9A6A920642BF5E
:101870005A6A22F400525A629A6A42F0FF029A624D
:1018800000230B7010BD00BF00ED00E070B5444BAD
:1018900006465B6800258AB0C3F3080385F3118808
:1018A000BFF36F8F02F07F40B0F17F4F11D102F094
:1018B0000C0008280DD010074CBF0E460125002251
:1018C000033B8DF80720032B05D8DFE803F01E5CEF
:1018D00060592E46F3E700249DF807309BB920227B
:1018E000314602A803F033FA099B002D53D0C3F30D
:1018F000080222B96FEA53236FEA43230993204673
:1019000002A903F0C6F90AB070BD254BDA6A910747
:10191000E1D4DA6A002ADEDBDA6A5200DBD55A69E2
:10192000B16942F480725A61BFF34F8FBFF36F8F7A
:101930005A6931F8021C22F480725A61BFF34F8F4A
:10194000BFF36F8F4DF60272914209D09A6AD2B2FC
:1019500042B101200DF10701FFF75CFF0446BBE730
:101960003468B9E79A6A12F47F4F05D001200DF16F
:101970000701FFF719FFF1E79B6AB3F5803FAAD390
:10198000FFF7E4FEEAE700200DF10701E4E700209D
:101990000DF10701EDE723F4FF7323F00103ADE739
:1019A00000ED00E0044B5A6942F010025A615A6996
:1019B00042F480625A61704700ED00E0EFF3088066
:1019C000EFF3098101B57246FFF760FF01BD00BF6B
:1019D000002320210348C2180133452B82F800134D
:1019E000F9D1704700E100E0002080F31488BFF3D4
:1019F0006F8F002080F30A8880F30B88FFF784FD47
:101A000000200E490860BFF34F8F0D4880F308880F
:101A100000F02CF8202080F311880A484FF4006170
:101A2000401880F30988EFF314800221084380F303
:101A30001488BFF36F8FFFF729FE000094ED00E0DC
:101A40007090042070600420002318460649D1F8E5
:101A50009020C2F30722934200DB7047C1F8983010
:101A6000C1F8A0000133F6E700ED00E010B572B652
:101A7000002484F31388FFF7E7FF23464FF0FF307D
:101A80000C4A03F120010133102B42F82100F8D158
:101A900000234FF0FF30074A03F160010133102BA0
:101AA00042F82100F8D162B6BFF34F8FBFF36F8FBA
:101AB00010BD00BF00E100E00121024B024A0348D3
:101AC00000F0DCB80000072000200020C46F0000F8
:101AD00010B50C7A0B6804F01F0223F01F031A43A1
:101AE000CB68640923F01F03054943EA440343F02C
:101AF0000103C1F89800C1F89C20C1F8A03010BDC6
:101B000000ED00E02DE9F04F0F46144606464FF079
:101B100000084E4D85B0B84580F29480D6F8049008
:101B2000B9F1000F36D0B9F11F0F40F2898019F0DA
:101B30001F0F40F08580D6F800A01AF01F0F7FD14C
:101B4000504603F0B7F8834609EB0A00013803F06A
:101B5000B1F8834574D11BF1160F71D05C456FDD70
:101B6000C5F898B0D5F89C10C5F898B0D5F8A03055
:101B700021F01F0143F01F0AD6E900321A449942AE
:101B800002F1FF391ED1CA4508D131465FFA8BF008
:101B900003F099F808F101080C36BCE73146C5F8A6
:101BA00098B0D5F89C3022F01F0203F01F031343B6
:101BB000C5F89C30E0B203F086F810F1160F3FD064
:101BC000441CE7E7C5F898B0D5F8A020013B23F006
:101BD0001F0302F01F021343CA453146E0B2C5F8A5
:101BE000A030E8D003F06FF810F1160F28D0C5F838
:101BF00098B0D5F89C209DF808300AF1FF3A62F3BE
:101C000004038DF80830D5F8A0309DF808205B0853
:101C100063F347128DF80820D6E90032134400938D
:101C200023F01F03411C5344A3EB0903C8B223F064
:101C30001F030728039303D86946FFF749FFBFE74F
:101C40006FF01504204605B0BDE8F08F00ED00E010
:101C50000522044BC3F89420BFF34F8FBFF36F8F5F
:101C6000704700BF00ED00E0BFF35F8F0022024B22
:101C7000C3F89420704700BF00ED00E010B5034C9E
:101C80002278FFF73FFF207010BD00BF6A60002080
:101C900038B50E4D2C68082C15D80020FFF7E4FF4E
:101CA0000B4B0C4AC3F8C020844205D10A4B0020DC
:101CB0001C70FFF7CDFF38BD696801EB0011FFF71D
:101CC00007FF0130F0E74FF0FF30F4E7D06F00007E
:101CD00000ED00E0AAFF44006A600020084B70B5E8
:101CE000C31A0D4607499B10044659434022064833
:101CF00003F05DF82B4601462046BDE870401847CA
:101D0000D0450020B76DDBB6EC6B0000402373B507
:101D10000B4C0093041B0B460D460A49A41061436B
:101D20000646094A094803F06FF8011E05DA3046F5
:101D30002B4602B0BDE87040184702B070BD00BF2E
:101D4000D0450020B76DDBB67B4E0000EC6B000089
:101D500010B54FF02003EFF3118483F31288BFF323
:101D60006F8F074A136823F00201DB07116002D46A
:101D7000012004F0A0FE84F31188BFF36F8F10BD23
:101D8000704600202DE9F843002201210646052077
:101D9000FFF762FC114801F087FD114B984219D101
:101DA00004F018FE00244FF01C090C27DFF83480E3
:101DB0003569414609FB045002F070FE002807DB3C
:101DC000012307FB04551C44042CAB67F0D1002011
:101DD000BDE8F8836FF00400FAE700BF1D1E0000A5
:101DE0000000AD0BF86F000001460C2300224B43AE
:101DF00070B50848C41878331844D4E91C562267D3
:101E000002F0C2FF2DB132462B46BDE870400248B9
:101E1000184770BDD0450020EC6B0000052811D894
:101E2000DFE800F0030E10100C0A074B986F10F05B
:101E3000070007D1FFF7D8BF0220FBE70320F9E72F
:101E40000120F7E7704700BFD045002008B54FF0EC
:101E50002003EFF3118183F31288BFF36F8F124ACF
:101E6000136843F002001060DA0708D481F3118888
:101E7000BFF36F8FBDE80840012004F0BDBD4FF0F7
:101E80005023D3F80C24D3F80C34D307EED50748ED
:101E900002F07AFF81F31188BFF36F8FBDE808402D
:101EA0000020FFF7A1BF00BF704600204846002079
:101EB0002DE9F843012207463449D1E8EF3FC1E854
:101EC000E02F0028F9D133B9314932484B60CB605B
:101ED0008A6002F0F6FD7B1E012B2DD8012F07D161
:101EE0004FF05023D3F81C3403F00303022B23D00C
:101EF00004F025FE054608BB274B1B78F3B14FF0D5
:101F0000502302220646C3F808234FF050244FF016
:101F10000008DFF88890D4F81834D4F81824D203D5
:101F200016D503F00303022B01D0012F10D13DB3CE
:101F300086F31188BFF36F8FBDE8F8834FF020035D
:101F4000EFF3118683F31288BFF36F8F0125DCE76F
:101F50003046FFF73FFBD4F81835DBB2012BDAD15E
:101F6000D4F80421002AD6D0C4F80481D4F804217E
:101F70000222C4F818252022C9F88021A360CAE7EC
:101F80004FF050230222C3F80423D5E7CC450020AC
:101F9000BC450020EC4500206E60042000E100E01C
:101FA00000F1744000F5A6000A289ABF024B33F9ED
:101FB00010006FF00F00704798720000024B0B602A
:101FC00001231360704700BFAC70000000487047E9
:101FD000407000000C4B10B5994204460FD14FF0F1
:101FE0002003EFF3118083F31288BFF36F8F237800
:101FF00033B10023237080F31188BFF36F8F10BDBE
:10200000FFF7E8FAEBE700BF0000AD0B38B5044678
:1020100000694178A9B90C4D02F056FF2B785BB9E5
:1020200002460A49606801F0FFFDFFF7B9FFB0FA08
:1020300080F301465B092B70206902F03DFF0846E2
:1020400038BD0021FBE700BF6D600020B14E0000ED
:1020500038B5044600694378ABB902F035FF0A4D44
:1020600001F018FFA84209D101F036FF0022074B0A
:1020700020691A70BDE8384002F01EBF4CF25030A3
:1020800004F079FDECE738BD0000AD0B6D60002079
:102090002DE9F84F0D1E80461746D0F8049066DBF8
:1020A000D9F81830AA189A4261D8C5F30B02002F4C
:1020B0005DD0C7F30B03134359D1FFF7A7FF0446C5
:1020C00048BB0146404602F042FF044618BBD8F820
:1020D000100002F0F9FEDFF89CA0D9F81830BB42DE
:1020E0001FD104F0FCFCBB4606463146D8F8100070
:1020F000FFF770FF56452AD1B7EB0B075D44ECD1D3
:10210000D8F8100002F0D8FE0121404602F01FFF6F
:10211000002C08BF04464046FFF79AFF2046BDE862
:10212000F88FB7F5803F09D3ABB2ABB92946012090
:1021300001F020FF4FF4803B0646D6E7B7F5805FFD
:102140000AD20D49D8F81000FFF744FF0A4E304676
:10215000FFF726FF0446D3E7C5F30B000028F0D1B4
:10216000294601F007FF4FF4805B0646BDE76FF09C
:102170001504D3E70000AD0B0400AD0B2DE9FF47BC
:1021800005460E4698461746002A00F08480002B2C
:1021900000F08180042B02D913F0030F7BD1B30729
:1021A00079D1002E6A6876DB926906EB08039342C8
:1021B00071D82846FFF72AFF044698B901462846F9
:1021C00002F0C5FE0446286902F07EFE8CB1286943
:1021D00002F072FE0121284602F0B9FE2046FFF708
:1021E000DFFE04462846FFF733FF204604B0BDE873
:1021F000F087B8F1030F1CD832460421684604F07A
:102200006BFC044601462869FFF7E4FE234B9C4221
:1022100032D142463946684602F099FD32460421E1
:10222000684604F056FC044601462869FFF7D2FED2
:1022300022E007F06043B3F1005F28D0DFF85CA034
:10224000B8F1100FC14628BF4FF0100939464A4671
:10225000684602F07CFD32461021684604F039FCE5
:10226000044601462869FFF7B5FE544504D1B8EB92
:1022700009084F444E44E3D1286902F01DFE0121B4
:10228000284602F064FE002C08BF0446A6E732464A
:1022900041463846C5E76FF01504A6E70000AD0BD0
:1022A0002DE9F04F074688461C46164685B0002AA1
:1022B00000F09980002B00F0948000294268C0F261
:1022C00092809269CB18934200F28D80FFF79EFEB8
:1022D000054600287ED1C8F1000505F003053869E0
:1022E00002F0F2FDA54228BF2546734203F0030326
:1022F00006F0030958BFC3F10009C9F1000909F04C
:102300000309A14528BFA146631BA4EB090424F0DF
:10231000030423F0030AA245C8BFA24603F0030B3F
:10232000C8BFA3EB040BBAF1000F18D006EB0903EA
:1023300008EB050251461846019304F0CDFB044614
:1023400001463869FFF746FE284A94423BD14D4585
:1023500005D0019B52461946701902F0E1FCBDB14F
:10236000C5F104090421A8EB090202A804F0B4FB9A
:10237000044601463869FFF72DFE1C4B9C4222D1D2
:1023800009F108032A4630460DEB030102F0DFFC99
:10239000BBF1000F16D0082108EB050252440DEBEB
:1023A000010004F099FB044601463869FFF712FE6C
:1023B0000E4B9C4207D10AEB05005A4602A9304455
:1023C00002F0C5FC094C386902F076FD2046FFF7A3
:1023D000E7FD05463846FFF73BFE284605B0BDE859
:1023E000F08F1D46F9E76FF01505F6E70000AD0B1D
:1023F000F0B5436887B01D6A04460021284603AA49
:1024000002F04CFE002866DB039B2A6819791868E5
:1024100000F05EF900285EDB4FF050270125002216
:1024200001212B20FFF718F96668226930463D49E3
:10243000C7F8B85501F0F8FB0223C7F8B835FFF725
:10244000AFFD002847DB0022AB23204603A9CDE9DE
:10245000032205928DF80C3002F03EFD00283ADB95
:10246000232004F088FBF37A023BAB4205D9B57A0E
:10247000033D012D8CBF00250125204602F07CFD87
:10248000002828DBC2B2C0F38010854201AD24D100
:102490002046FFF7DDFD03260023CDE90263049308
:1024A0009F232046CDF804D08DF80C300595FFF71A
:1024B000ADFD024678BB204603A902F00DFD05469E
:1024C0002046FFF7C5FD4DBB6068324669461C30AB
:1024D00002F016FC10BB07B0F0BD002382F04002F2
:1024E000ADF800308DF800200122204603A9CDE987
:1024F0000223CDF804D005938DF80C20049502F04A
:10250000EBFC0028E7D1204602F036FD0028E2DB94
:10251000C307F8D4BCE72046FFF79AFD6FF012001E
:10252000D9E700BFB14E0000024B0B6001231360DE
:10253000704700BFB470000000487047BC700000D6
:102540002DE9F7431C460B44B3F5802F0D46174683
:102550002CD800292ADB41EA040616F0030625D10F
:102560000422FF210DEB020002F0FCFBDFF84480A7
:1025700008EB0509A64209D33A4608EB05033C449B
:10258000A2420CD1002003B0BDE8F083042209EB85
:1025900006010DEB020002F0B3FB0436EAE71978FE
:1025A00012F8010B014003F8011BE9E76FF0150079
:1025B000E9E700BF6E600020104608B51A460B44DC
:1025C000B3F5802F07D8002905DB044B194402F02E
:1025D000BEFB002008BD6FF01500FBE76E60002019
:1025E0008B18B3F5802F70B51BD8002919DB42EA90
:1025F0000106C6F30B06A6B90B4C21F47F6121F04E
:102600000F01150B0C44AE4201D1002070BD2046D5
:102610004FF48052FF2102F0A5FB013604F58054EF
:10262000F1E76FF01500F1E76E60002008B54FF498
:102630008022FF21024802F095FB002008BD00BF68
:102640006E6000204FF4802301480B60704700BF8C
:102650006E600020024B0B6001231360704700BFC7
:102660007446002000487047EC70000010B504F07C
:102670002AFA034C206004F023FA6060002010BDA9
:1026800074460020F8B50E461946304617461D46DA
:1026900002F08DFCB8B146EA050414F0030412D12F
:1026A0004DB12B19032BA6EB040006D8074AD2F82C
:1026B0000034DB07FBD50020F8BD3B1B196801F097
:1026C0008FF9043CEDE76FF01500F5E7009003503B
:1026D0004FF0010C2DE9F0475B4E5C4F00EB8101A0
:1026E000814202D10020BDE8F087046804F07F0336
:1026F000C4F343257F2B4FEA144408BF4FF0FF3348
:10270000222C00F29D80DFE804F0122328422B3EA9
:10271000429B9B9B9B45729B9B9B9B9B9B9B9B9BE1
:10272000757D80839B9B9B868C8F92959800C2F8C9
:102730000C354FEA5318B8F1010F14BFB646BE4628
:1027400003F01F040CFA04F4CEF80840012402E060
:10275000C2F814350024A64623E0C2F80835E8E79D
:102760000024C2F808354FEA5319B9F1010F14BF1C
:10277000B046B84603F01F0E0CFA0EFEC8F80CE087
:102780004FF0010E0DE0C2F80C350124EBE7C2F862
:102790001035DFE7C2F80835002DDBD1002406250F
:1027A000A64650F804AB03F01F090AF40058B8F12C
:1027B000000F4FEA53131CBF01244FF0000E012BF2
:1027C0000CBFB846B04608EB8908D8F80032CAF307
:1027D000C11A03F0E0492B0243EA8A0343EA0E03DD
:1027E00043EA440343EA0903C8F8003278E7C2F831
:1027F0000C35D1E7C2F860350468C4F38034002C8E
:10280000C3D096E7C2F86435F6E7C2F86835F3E757
:10281000C2F86C35F0E7C2F8243501244FF0000E01
:10282000BFE7C2F8283584E7C2F83035F5E7C2F8CB
:102830003435F2E7C2F83835EFE7C2F83C35ECE75B
:102840006FF085004FE700BF0025845000288450BA
:102850000123834070B5DC430B4AD2E8EF1F01EA45
:102860000405C2E8E65F002EF7D14FF480328240C3
:102870000648C0F80823BFF35F8FBFF36F8F0B428A
:1028800014BF0120002070BD804600200050015080
:10289000D9B101230D4A8340D2E8EFCF4CEA030CB3
:1028A000C2E8E1CF0029F7D14FF48033084A8340D2
:1028B000C2F80433074BD3E8AF3FC340DB0742BF46
:1028C0004FF40012044BC3F80021704780460020EB
:1028D000005001507C46002000E100E00D4B1868DC
:1028E000010A0006BFF35F8F0B4BD3F804351818AD
:1028F00041F10001B3F5801F0AD2084BD3E9002350
:10290000904271EB030303D210F1807041F100019A
:10291000704700BF8446002000500150D82000209E
:102920002DE9F74F16461F460446FFF791FF00902A
:10293000FFF7D4FFB04271EB070350D2384B301A87
:1029400067EB0101984271F1000165D2354B03EB51
:102950000413D3E902239F4208BF964249D04FF4A3
:102960008039314909FA04F9204626F07F4BC1F835
:10297000489302F0A6FB4FF0030A584604F15005B5
:10298000AD00ADB205F1502504F5A873274A05F551
:1029900080350193DDF804C020F07F4341F82C30EE
:1029A000C1F84493D1F80485A0EB0800033820F067
:1029B0007F4090421DD9286860B1D1F80485A8EB0A
:1029C0000B0020F07F40B0F5000F12D9204602F036
:1029D00078FB164A0AEB08000AF1010ADAE701233C
:1029E000134AA340D2E8EF0F1843C2E8E10F0029D1
:1029F000F8D100250B490C98230101EB0412C850B3
:102A0000C2E902670D9B536020460099FFF740FF23
:102A1000284603B0BDE8F08F6FF01505F4E700BF5E
:102A200001008000C020002000500150FDFF7F0009
:102A30007C46002073B500254FF0FF304FF0FF318A
:102A4000194C1A4B0226C4F80833C4F84833184B03
:102A5000C4F80855C3E902014FF480334FF4001263
:102A6000C4F80433134B0121C4F804631520C3F8E0
:102A700080212A46FEF7F0FD1520FEF7BDFD01235B
:102A80000D4AA360236013600C4B4FF480720093D7
:102A9000284600230195FFF743FF3046FFF708FA69
:102AA000284602B070BD00BF0050015003000F0067
:102AB000C020002000E100E080460020C12A000084
:102AC000F7B5174922F07F45D1E90063921B140A3C
:102AD00022F0FF02921943F10003C1E90023A5F59A
:102AE0000011B1F5400F0AD20E4909684FEA112CC6
:102AF00009064E190C494CF10007C1E90067002195
:102B000001910A4912F58072009143F10003FFF729
:102B100007FF204603B0BDE8F04001F0A7BB00BFAF
:102B2000D020002084460020D8200020C12A0000A8
:102B30002DE9F7432E4BD3F8042390070BD5D3F898
:102B4000042142B10022C3F804212A4AD3F80431F7
:102B5000136801331360264AD2F80433D90327D50A
:102B6000254BD3E8EF1F21F00100C3E8E40F002C50
:102B7000F7D1CB0702D4D2F84031CBB100251C4CA1
:102B8000C4F84051D4F84031FFF7A8FE4FF02003BD
:102B9000EFF3118283F31288BFF36F8F174BD3E9E2
:102BA0000267B042B94106D282F31188BFF36F8F3A
:102BB00003B0BDE8F0834FF0FF38D3E900104FF0C9
:102BC000FF391D60C3E902894FF48033C4F84833EC
:102BD000C4F84051D4F8403182F31188BFF36F8FAD
:102BE0000029E5D0009032463B4628468847DFE77B
:102BF00000500150844600207C460020C020002068
:102C0000012310B5074C15206360FEF703FD4FF458
:102C10000012054BC4F80833C4F84833034BC3F81B
:102C2000802110BD0050015003000F0000E100E0C2
:102C300040EA0103C3F30D0330B58BB940F215151B
:102C4000094C890BC0F38730994201D1002030BD77
:102C5000C218D2B202F5C07244F822500133F3E731
:102C60006FF01500F3E700BF003000504FF0005345
:102C70001868054B984205D0044B98420CBF0120C0
:102C80000220704700207047B6B3B4B55DCE03F1A3
:102C900008B5FFF7EBFF30B1034803F070FF0022E7
:102CA000024BC3F8402408BD9020002000300050A3
:102CB0001022124B10B5C3F840244FF050220123CC
:102CC000C2F81436B0B1A9B14FF000530C4C996062
:102CD000C3E900404FF408410024D960C2F814460B
:102CE00080220848114601F04FFB074803F043FFDC
:102CF000204610BD6FF01500FBE700BF003000500C
:102D0000B6B3B4B59020002040420F001022174BFC
:102D100010B5C3F840244FF050220123C2F81436F6
:102D200008B301B34FF0005399604FF40841104CC1
:102D3000D960C3E9004000230E4CC2F81436204687
:102D400003F019FFFFF792FF0028F8D0022809D0FE
:102D50004FF0502301220020C3F81426A3F500539E
:102D6000C3F8400410BD6FF01500FBE700300050C1
:102D7000B6B3B4B540420F004FF48272014BC3F8B2
:102D8000002770470030005001280FD179B9084B57
:102D9000084613604FF4007313814FF45E33C2E9A9
:102DA0000511C2E903315160D161704701207047BC
:102DB0003DB8F396012803D119B9024B1868704742
:102DC00001207047E820002013B50446104803F0A6
:102DD0008BFEB0B1002001A9FFF734FC0D4B026857
:102DE0009A4211D10389C16818444368B3F1807FC6
:102DF0000AD91CB1FFF78AFF02B010BDFFF758FFD8
:102E0000FAE76FF01200F7E76FF03C00F4E700BF5D
:102E1000046C00003DB8F39630B5816885B0103978
:102E200021F00704054601F009FF1022014668461B
:102E300001F098FF10226846064901F088FF102330
:102E40006A462146284601F0C9FE003818BF012015
:102E500005B030BDAE72000030B50D46816887B058
:102E6000102302AA1039044601F0A3FE002802DA5A
:102E7000012007B030BD1022204602A902F067F9F8
:102E800000283AD110221E4902A801F039FF00287B
:102E90000CBF012302232B70204602F044F90123CA
:102EA00001460DF10702204601F083FE0028DFDB1A
:102EB0009DF80730204603F00F021B096A702B7142
:102EC00001220DF1070102F042F910B96B78042BD1
:102ED00003D901236B7000232B71A2682046183A96
:102EE00022F00702083AA91C02F044F90028BFD1D9
:102EF0002046E91C02F05AF9BBE70323CBE700BFE9
:102F0000AE7200007FB56946044602F0EFF8012872
:102F10004AD16946002C41D0012C3AD0FF2002F062
:102F20004BF9002848D1FF2002A902F045F90128F9
:102F300040D103238DF808308DF80B3000249DF824
:102F400000509DF80860214A2946107802F0F1F8F7
:102F5000A0B33146507802F0ECF878B39378042BA4
:102F600003D09DF80310994228D1D378042B03D0C5
:102F70009DF80B10994221D11379042B03D09DF8B1
:102F8000021099421AD15079831E022B14D804B032
:102F900070BD02F011F978B90820C5E7042002F0ED
:102FA0000BF948B90220BFE730B9002CFAD0012C48
:102FB000B9D1F1E70028C1D0FF20E8E70134032CA4
:102FC00002F10602C0D10120E1E700BF6E740000EB
:102FD00001680E4A0346914215D1C169A2F110223F
:102FE000A2F1EF1291420ED18268012A0BD8C26879
:102FF00012B101698A4206D0586928B19B691B1A2F
:103000005842584170470120704700BF55AA00FF41
:1030100070B50D4B9E68A6B13046FFF7D9FF044648
:1030200078B9F3686BB935690DB9204670BD28468B
:10303000FFF7CEFF28B9EB68B34202D12E462D69C7
:10304000F2E70124F1E700BF884600202DE9F843AC
:103050003F4F3C68D4B1BC68C4B100284AD00029B5
:1030600048D001FB00F5B5FBF0F0884242D1281DA5
:1030700040D8A9070DD025F003060436FC6803E00C
:103080006368B34238D2A469002CF9D12046BDE868
:10309000F8832E46F2E7FB6041E006F12001631859
:1030A000203A5A600022C3E902242A4822691A61A0
:1030B00060502949D96102B1D36062695A61A1693E
:1030C0009961AAB193619A6902B153614FF0010904
:1030D00023610023C4E90169C4E905333B69DB07C7
:1030E0002ED5FFF795FF58B31C4B48461B6826E0CA
:1030F000FB60E8E70024C9E7A3681BB1174B012078
:103100001B689847626804F12008921B232AC4D8E0
:103110000123A360D4E90523002ABCD09361A369ED
:103120000BB162695A610023C4E905333B69DA07D0
:1031300006D5FFF76DFF18B10120084B1B689847B3
:103140002A4600214046444601F00CFE9EE700BF9F
:103150008846002055AA00FF669911EE1020002035
:1031600070B50546002800F08880444E3368002B77
:1031700000F08380B268002A7FD0834203D872684F
:103180001344984203D33E4B01201B689847A5F196
:1031900020042046FFF71CFF18B1394B01201B68A3
:1031A000984755F8183C012B03D0354B01201B687C
:1031B0009847002345F8183C55F8143C3BB39A68EF
:1031C0002ABB55F81C2C02F120015A680A445A60A7
:1031D00055E905321A6155F8145C2B6903B1DD60BD
:1031E00020220021204601F0BDFD286910B183682E
:1031F000002B2ED033699B073FD5FFF709FF00282E
:103200003BD0BDE870401E4B01201B68184755F8A5
:10321000100C00282AD0836843BB426863681344BB
:103220002033636003692361D4E905239AB9CBB9DC
:10323000436963618269A261B3B19C61A36903B10F
:103240005C61236903B1DC602022002101F08AFD6A
:10325000D0E72C46E1E79361A369002BE8D06269CF
:103260005A61E5E7F360F7E7F460E7E7F36845F8EC
:10327000083C03B15C61F460BCE770BD8846002087
:103280001020002038B50C461422002105461348B2
:1032900001F068FD1249134800F034F8232C1CD9C2
:1032A00015F003031FBF043CE418C3F10403ED1839
:1032B00022460021284601F055FD084B0A49C3E982
:1032C0000054203C9D606C609A6811609A68A1F17E
:1032D0001021A1F1EF11D161DA6038BD88460020DC
:1032E000613100004D30000055AA00FF014B1B6802
:1032F000184700BF18200020014B1B68184700BF6B
:1033000014200020024B1860024B00201960704707
:103310001820002014200020F8B500F108064768A6
:10332000044630460D4602F0B4F887424BD163683C
:10333000B3F5807F47D80021304602F0A2F900287B
:1033400041DD0021304602F090F8E0B345B929464E
:1033500004F1140002F095F9002834DD0020F8BDD6
:1033600004F12C050021284602F08BF900282ADD03
:103370000021284602F079F828B304F1380500212D
:10338000284602F07EF900281DDD0021284602F0C3
:103390006CF8C0B1002104F1140002F072F90028A9
:1033A00011DD002104F1440002F06BF900280ADD70
:1033B000002104F1500002F064F9002803DD00212F
:1033C00004F15C00C6E70148C9E700BF80BFFFFF0A
:1033D00070B500210446FFF79FFF054610B10E4D62
:1033E000284670BD04F10806304602F04EF87F28EA
:1033F000F5D914342946204602F037F80028EED0DB
:10340000204602F042F80128E9D93146204602F070
:10341000F7F80028E4DBE2E700BEFFFFF0B50C465A
:1034200087B0002105461646FFF776FF002839D100
:1034300003A801F072FF21466A6803A802F02FF882
:10344000044618B103A801F06EFF0CE005F1080472
:10345000214603A802F0D4F8002807DB03A801F0F6
:1034600062FF6FF00304A4F5854418E005F16803DA
:1034700003A96F680846009305F11402234602F081
:10348000DAFB04460028DDD13A46314603A802F0B3
:103490001CF8044603A801F046FF002CE3D12046A7
:1034A00007B0F0BD004CFAE780BFFFFF01290346DB
:1034B0002DE9F04143D8234A002918BF9046224AFB
:1034C000224F18BF964602F1794202F5740202F5C6
:1034D000016218BF94461E4A1E4818BF17461E4A6E
:1034E0001E4E18BF164602F1D14208BF804602F5B3
:1034F000C0121B4802F51E6208BF8646194D1A48C5
:1035000018BF1546194A08BF8446194C194818BFF8
:103510001446A2F11162A2F50C22A2F28E2218BF6B
:1035200002460020C3E9028EC3E90000C3E904C7D4
:10353000C3E90665C3E908429966BDE8F0816FF00A
:103540007300FAE7D89E05C107D57C363AF54FA53A
:1035500039590EF767E6096A310BC0FF7F520E51E9
:1035600085AE67BB8C68059B72F36E3CA78FF964D0
:10357000ABD9831FA44FFABE2DE9F04FD1B00DF5A2
:103580008E7B5A46031D019300F124030393019B94
:1035900053F8040F42F8040F03989842F8D1DDE97C
:1035A00048074FF000094F9B4CAD0293DDE94AE319
:1035B0000493424B06AA059395E82011B9F10F0F29
:1035C00063D84C780B78240444EA0364CB78234313
:1035D0008C7843EA04234FEAF52A8CEA0804059E16
:1035E0008AEAB51A2C408AEA756A84EA0C045444C3
:1035F00056F804AB936054442344029C4FEA703A5B
:10360000234440EA070405968AEAB00A04EA0E0455
:1036100000EA07068AEAB05A3443544409F1010922
:10362000DDF810A0B9F1400F9A4402F104022344DE
:1036300001F10401CDF808C0CDF810E01ED1CDE9AC
:103640000634CDE94E8CCDE94CA5CDE94A7ECDE9D5
:103650004830019A52F8043F01925BF8042F13445A
:10366000019A1360039B9342F3D106A84FF494711F
:1036700000F0F8FE002051B0BDE8F08FBE46C44611
:103680000746A8461846554698E7136852F8384C3E
:103690004FEAF34A8AEA734A8AEA932A52F8143CB8
:1036A00052F8346C234452F8344C53444FEAB44437
:1036B00084EAF61484EAD60423448CE7F47000000C
:1036C0004FF47F03D3F83021D3F83431072A05D1E2
:1036D000023B032B02D8024AD05C7047002070479F
:1036E0008874000008B5FFF7EBFF58B1644BD3F8BE
:1036F000202A3AB90D21C3F8201A0121C3F81C1958
:10370000C3F81C290022D30003F57F03D3F800136C
:10371000013107D0D3F800130132D3F80433202A43
:103720000B60F0D1FFF7CCFF002840F0A080FFF73E
:10373000C7FF40B1534B544AC3F830254FF05023D4
:103740000122C3F858254FF47F03D3F83021D3F872
:103750003431072A09D1023B032B06D84B4AD35CEC
:103760001BB100224A4BC3F84C25FFF7A9FF50B10B
:103770004FF05023D3F80024D10742BF0022C3F8F2
:103780001421C3F818214FF47F03D3F83021D3F864
:103790003431072A09D14FF05023D3F80024D2073F
:1037A00044BF6FF00102C3F80024FFF789FF18B18E
:1037B0006522334BC3F80C274FF47F03D3F8302135
:1037C000D3F83431072A16D1314BD3F82034002BEB
:1037D00011DA4FF050230322C3F8182501229A6012
:1037E000D3F80421002AFBD00022C3F804210122CF
:1037F000DA60C3F818254FF47F03D3F83021D3F8EB
:103800003431072A23D1023B032B02D8214AD35C4F
:10381000EBB17E221A4B1B49C3F80C27C3F83C2995
:103820007F231D4AC2F818310023C1F8043EC1F8B5
:10383000083E01F54821C1F81031C2F82431C2F820
:103840002C3102F5FF1202F58052C2F8A032134A61
:10385000D2F88C3043F44063C2F88C30104A114BDC
:103860001168C3F84415D269C3F84C2508BD292254
:10387000034BC3F80C270322C3F83C2757E700BFCC
:1038800000400050009003504400EFBE84740000DC
:1038900000200350807400000020005000ED00E084
:1038A0000080FF0000600050044B1A7922B9012209
:1038B00018601A7102487047024870479C46002001
:1038C0000000AD0B0C00AD0B4FF0502310B5D3F83A
:1038D000002152B10020C3F80001D3F800210122D9
:1038E000C3F80823234B1B6898474FF05023D3F8A5
:1038F00004218AB10022C3F80421D3F80421D3F8AB
:103900001824D3F8181402F00302012A4FF0020120
:1039100028D1C3F818159A604FF05023D3F820210E
:1039200062B10022C3F82021D3F820214FF4807225
:10393000C3F808230F4B04201B6898474FF050230F
:10394000D3F82421AAB10022C3F82421D3F82421DA
:103950004FF40072C3F80823064B0520BDE8104061
:103960001B681847C3F80813024B01201B689847CF
:10397000D2E710BD9C4600200022034BC3F88425EB
:10398000C3F80425704700BF00900350044AD2F8E2
:103990000034DB07FBD50160BFF35F8F704700BFCA
:1039A0000090035008B5C0F30B0383B90222094B02
:1039B000C3F88425C3F804254FF0FF320260D3F822
:1039C0000024D207FBD5FFF7D7FF034808BD034803
:1039D000FCE700BF009003500000AD0B0A00AD0BE8
:1039E000012208B5054BC3F88425C3F80425FFF769
:1039F000CDFFBDE80840FFF7BFBF00BF00900350F8
:103A000070B500F06044B4F1005F68D1840766D1FE
:103A1000354D95F83040012C01D09C4261D12C6885
:103A200004BB022B314B0BBFC3F81025C3F8042590
:103A3000C3F81405C3F808050BBFC3F81815C3F87D
:103A40000C15082204220021C3F8001102F1A04342
:103A5000012203F52C331A60244AD2F80031002BDE
:103A6000FBD00DE0AE68214C66B1022BE8606961C5
:103A7000EA612DD1C4F81025C4F81405C4F818154E
:103A80001B4870BD022B85F830302961AA61A860FF
:103A90000CBFC4F81025C4F804254FF000020BBF7A
:103AA000C4F81405C4F80805C4F81815C4F80C15B2
:103AB00008BF08230D4918BF0423C1F800210122C3
:103AC00003F1A04303F52C33C1F804231A60D7E7B0
:103AD000C4F80425C4F80805C4F80C15D0E7054857
:103AE000CFE70548CDE700BFA446002000B0025054
:103AF0000000AD0B0A00AD0B0B00AD0B38B54CF25E
:103B00005034064DD5F8003133B90A2002F09DFE3D
:103B1000013CF7D1024838BD0248FCE700B0025032
:103B20000700AD0B0000AD0B084B9A685A621A698A
:103B30009A629A69DA62DA689A6032B15A691A61ED
:103B4000DA699A610022DA6070477047A446002063
:103B500010B50A4A0A4C00F01F034009012818BF9B
:103B6000224602EB8302D2F8003203F0E04343EA3C
:103B7000012343F00203C2F8003210BD0028845034
:103B80000025845010B50E4B0238D3F83C26D3F8EC
:103B90003836072813D8DFE800F0110F0D0B0A089C
:103BA0000604100EC871100C8871100A48710A7151
:103BB0001A0ECA701A0C8A701A0A4A700B7010BD5D
:103BC00000B00250023807281FD8DFE800F029278C
:103BD000251123211F04CB791B068A7943EA02436E
:103BE0004A7943EA02230A7913430E4AC2F83C3663
:103BF000CB781B068A7843EA02434A7843EA0223D9
:103C00000A781343074AC2F8383670470023E4E7BE
:103C10000023E5E70023E6E70023EBE70023ECE7DA
:103C20000023EDE700B002502DE9F0416D4D044650
:103C300095F830300E461746002B40F0CE80C27CFF
:103C400012B1037D002B6CD12079FF2800F0C880D1
:103C50006379FF2B00F0C480A379FF2B00F0C080B4
:103C6000E179FF2900F0BC806368DFF87CC123F0B4
:103C70007F43634540F0B4800E2940F0B180237A41
:103C8000FF2B02D00F2B40F0AB80637AFF2B02D0CA
:103C9000102B40F0A580B2B90321FFF759FF6079DE
:103CA000FFF756FFA079FFF753FFE079FFF750FFCA
:103CB000207AFF2801D0FFF74BFF607AFF2802D05F
:103CC0000321FFF745FF237D5BBB2379FF2B14BF47
:103CD0001A464FF0FF32454BC3F824256279FF2A7C
:103CE00008BF4FF0FF32C3F82825A279FF2A08BF8A
:103CF0004FF0FF32C3F83025E279FF2A08BF4FF0BA
:103D0000FF32C3F83425227AFF2A08BF4FF0FF3272
:103D1000C3F83825627AFF2A08BF4FF0FF32C3F894
:103D20003C2501230022DFF8C480C8F80833C8F816
:103D30000021C8F80030FFF7E1FE2D4B98424DD02E
:103D40002368C8F84035237BE17AA27A9B0143EAD5
:103D5000C1031343627B43EAC213C8F84435627C53
:103D6000D8F84435A2BB43F440332049C1F8443568
:103D70004FF4C063C1F84036D1F80026A37B22F08F
:103D80007F4222F0FF021343E27B43EA0263227C7C
:103D900043EA4263627C43EA0273C1F80036E37C83
:103DA000C5E9006785F8313016B12B20FDF724FCFA
:103DB00000210122C5E902110C4B85F83020C3F81F
:103DC0000025C3F800111A60BDE8F041FFF796BE68
:103DD00023F4003343F48033C7E70648BDE8F0819D
:103DE0000548FBE7A446002011120D0000B0025068
:103DF0000700AD0B0500AD0B0400AD0B2DE9F04144
:103E000015461F4A044692F83020012A35D111B1D7
:103E10004078FFF7D7FE012300271A4EDFF86880AD
:103E2000C6F80833C6F800713360FFF767FE4045F7
:103E300002D11548BDE8F081C6F80071A378627818
:103E40001B0343EA022322781343E27843EA423316
:103E5000227943EA8233627943EAC233C6F83436C0
:103E6000FFF74CFE4045E4D0C6F800711DB129466D
:103E70006078FFF787FE0548DCE70548DAE700BF12
:103E8000A446002000B002500700AD0B0000AD0BAF
:103E90000B00AD0B1FB500230C4A02A802920DF1D6
:103EA000070211468DF80730ADF80C30FFF7A6FF7A
:103EB000074B984206D19DF8073013F0010F054BD0
:103EC00018BF184605B05DF804FB00BF05020001ED
:103ED0000000AD0B0B00AD0B2DE9F8432B20FDF7D7
:103EE00099FB214B214ED3F8342602F44032B2F52F
:103EF000803F04BF1E4AC3F834260122C3F80823BA
:103F00001A610022C3F80025C3F8002196F8312079
:103F100022BBD3F82405D3F82895C0B2D3F8308556
:103F2000D3F83475D3F83855D3F83C4502F0CEFDBC
:103F30005FFA89F002F0CAFD5FFA88F002F0C6FD70
:103F4000F8B202F0C3FDE8B2FF28E4B201D002F0FB
:103F5000BDFDFF2C02D0204602F0B8FD002386F8FC
:103F60003030BDE8F88300BF00B00250A446002006
:103F7000000103008B0721D1124A13681BB192F88C
:103F80003030012B1CD1042382F830300E4BC3F8A3
:103F90001C150021C3F82005C3F800110121D960C8
:103FA000106840B9D3F800110029FBD0012382F832
:103FB000303006487047C3F80413FAE704487047E6
:103FC00004487047A446002000B002500000AD0B2A
:103FD0000A00AD0B0B00AD0B10B5174BD3F8002149
:103FE000E2B10022154CC3F8002194F83020032AD6
:103FF00015D0042A15D0022A04D1012384F82030D8
:10400000FFF792FDA36813B9012384F83030D4E997
:10401000003100209847002384F8203010BD02238F
:10402000ECE7032284F82020D3F81C256262D3F841
:10403000203584F82830E5E700B00250A44600207F
:10404000104B70B553F82040013053F82060A64261
:1040500000D870BDD4E900358DB12846984738B1F5
:104060000028B8BF4042FF28A8BFFF20EB681870A7
:10407000EA68537843F0010353700834E7E7984740
:10408000FBE700BFF4710000012208B5084B0320D4
:104090001A70FFF7D5FF02F07EFD0420FFF7D0FF76
:1040A000FCF7C0F9034A137B23F00103137308BD27
:1040B0006E600420D846002008B50348034A00215A
:1040C000121A02F038FD08BDC020002070600420E4
:1040D00008B50020FFF7B4FF184B03F5006282F328
:1040E000088883F30A880025E023154C84F82230E1
:1040F000E57725766576A57684F82050636A43F4E3
:10410000E023636284F82350FDF74CFCFDF75CFA72
:104110004FF0FF33A362E362FDF7BAFDFDF7CCFC7D
:1041200002F0E1FC0120FFF78BFF0220FFF788FF80
:104130002B462A4629460348FDF7D4FA706004202E
:1041400000ED00E08940000008B50648064A07492E
:10415000121A02F0F2FCBDE80840054A054906487B
:1041600002F0EBBC00200020BC200020A474000062
:1041700000000000A474000000200020034B1B6816
:104180000BB900F0ABBF0020704700BF4C470020C8
:1041900010B5094B1C689C4204D1FFF7EFFF6FF08C
:1041A000004010BDFFF7EAFF002CF8D0E368181AB2
:1041B00020EAE070F5E700BF2020002048B1094B5D
:1041C0005B68984205D003681BB1DA68C1680A448D
:1041D000DA60D0E9003213605A600023C0E900338E
:1041E000704700BF20200020531C70B504461546C0
:1041F00032D081604FF02003EFF3118683F31288F1
:10420000BFF36F8FFFF7BAFF174A013513680544F4
:10421000934208BF0023E560556823B9C4E900252F
:104220002C6054600AE0D868E168884215DD401AC5
:104230005968D860C4E900310C605C60136893422F
:1042400006D09C4204D1FFF7A3FF002100F045FFF8
:1042500086F31188BFF36F8F70BD091AAB42E1601E
:10426000DCD01B68D9E700BF202000202DE9F843EF
:104270004FF02003EFF3118C83F31288BFF36F8F9D
:10428000DFF89080244F4FF000093860D8F8000024
:10429000224D404508BF0020D5E9002166463B6815
:1042A00030B3C4689C4202DDE41AC46020E0A21866
:1042B00041EBE471C0F80C90C5E90021FFF77EFFE7
:1042C00086F31188BFF36F8F836898474FF0200300
:1042D000EFF3118683F31288BFF36F8F3B68D8F832
:1042E00000001B1B4045B4463B60D5D1D5E90021F9
:1042F00000249A1841EBE371C5E900213C60FFF707
:1043000047FF214600F0E9FE86F31188BFF36F8F67
:10431000BDE8F883202000204C470020E02000204A
:1043200038B504464FF02003EFF3118583F312886C
:10433000BFF36F8F036823B185F31188BFF36F8FCD
:1043400038BD036A5A1ED11C05D8012B08BF0022B4
:104350000C49FFF749FF636A01336362A369002BCD
:10436000EAD085F31188BFF36F8F2046A369984781
:104370004FF02003EFF3118583F31288BFF36F8FA3
:10438000DAE700BF214300004B1C70B504460D4620
:1043900016460BD002F0D9FB0023266263622A4640
:1043A0002046BDE870400249FFF71EBF70BD00BF48
:1043B0002143000010B50A4C23681BB10123236080
:1043C000002010BD00F058F80028F7D00138072869
:1043D00003D8044B53F8200010BD034810BD00BFA4
:1043E000504700200C720000FE8FFFFFBFF34F8F7D
:1043F0000549064BCA6802F4E0621343CB60BFF381
:104400004F8F00BFFDE700BF00ED00E00400FA059C
:1044100030B44FF0FE3200250B4B0C4C0C49496870
:10442000C3F80024C3F80424C3F80824C3F80C24F8
:10443000C3F81024C3F81424C3F81824C3F81C24A8
:10444000C4F8005530BC08470050845000408450E8
:1044500028200020024BD0E90012C3E90012704767
:104460002820002038B131B1002201440346013038
:1044700088421A70FAD1704708B500F011F830B9C7
:1044800000F010F838B9054AC2F80C0A08BD00F06F
:1044900037F8032008BD042008BD00BF0050845039
:1044A0000020704710B5114800F048F800B110BD69
:1044B0000F4800F043F80028F9D10E4C204600F0D8
:1044C0003DF80028F3D10C4B0C481C6000F036F886
:1044D00001460028EBD100F02DF8044608B1204633
:1044E00010BD00F03FF82046FAE700BF4020002052
:1044F0003C200020382000203020002034200020E4
:1045000008B5084800F024F8074800F021F80748EB
:1045100000F01EF8064800F01BF8BDE8084000F067
:104520000BB800BF402000203C2000203820002095
:104530003420002000207047704700BF08B5034BAF
:1045400002681B6810689847002008BD58200020AA
:1045500008B5034B02685B6810689847002008BDE7
:104560005820002070B5094C094D2069AB68984768
:1045700018B1084B08485B6898470021074AEB6868
:1045800011602069BDE87040184700BF442000203A
:1045900058200020282000202C72000054470020C2
:1045A00010B5044650B1636813F0685F05D0064A41
:1045B000934202D000236260236010BD034B044885
:1045C0005B689847EFE700BF2C5F5CA928200020BC
:1045D0004C720000C8B143680D4A934213D013F0E7
:1045E000685F0ED0012350E8002F194640E8001CF8
:1045F0009CF0000FF7D1012AF5D0BFF35F8F0020A8
:10460000704704487047044870476FF4E0407047B3
:104610002C5F5CA9E98FFFFFEA8FFFFF034680B1A3
:10462000426809498A420AD012F0685F05D0BFF398
:104630005F8F002210461A60704704487047044894
:1046400070476FF4E04070472C5F5CA9E98FFFFF73
:10465000EA8FFFFF10B5044620B10023034A236010
:10466000626010BD0248FFF7D3FEF6E73A00003A59
:104670007472000008B9086070476FF01500704749
:1046800021B1012907D06FF01500704748B101280A
:1046900018BFFF20704730B1012814BFFF20082049
:1046A00070470420704702207047002070472DE9B2
:1046B000F7430E4617469946044628B94FF0FF388F
:1046C000404603B0BDE8F0830029F7D0002AF5D0BA
:1046D000CB680D8938461D44042329460DEB03029F
:1046E00000F067FA80460028E8D146F60812BDF8C7
:1046F00004107389914225D1BDF806109942DDD18D
:10470000042338460DEB0302294400F052FA002836
:10471000D4D146F60713BDF804209A42CED1C4E99D
:1047200000679DF82830A4F80890A3727389BDF83B
:1047300006202B44E360738913442B4404356361E2
:104740002561BDE7002BE4D0B8E72DE9F3410E4623
:1047500017461D46044620B94FF0FF3002B0BDE8B1
:10476000F0810368002BF7D04368002BF4D04FF69C
:10477000FF78D4E904239A4216D223685B8923B1D7
:10478000E368934204BF0433236104232169606812
:104790000DEB030200F00DFA0028DDD1A37A2BB156
:1047A000D4E903329A4201D30120D7E72389BDF827
:1047B0000610434501F1040203D0BDF804C09C4536
:1047C0000BD115B1BDF804302B802369043333605D
:1047D0003980236913442361C0E7236913442361AB
:1047E000C7E700F08DBA4FF440735843303070473C
:1047F00000F099BC03464FF4807213B5084693F855
:10480000B810019299B1012903D0FF2811D00120DD
:104810001DE001280DD008228242F8D1582404FB63
:10482000013204FB0133126D03F1540409E0042842
:104830000FD1582404FB013204FB0133526A03F107
:10484000280401A9FCF78AFE08B9019B236002B085
:1048500010BD0222E0E738B590F8B8100446E9B17F
:10486000012906D0FF21FFF7C5FFF0B10125284639
:1048700038BDFFF7BFFF0028F8D108212046FFF719
:10488000B9FF054698B9582294F8B83002FB0343A3
:10489000186A00F0CCF9C4F8B400E8E70421FFF787
:1048A000A9FF0028E2D10221E8E7FF21E6E7092578
:1048B000DDE72DE9F04704460D4616464FF00009A6
:1048C0004FF02C08582708FB09FA94F8B80049461D
:1048D00017FB00A22244FEF757FA012809D194F8E9
:1048E000B820334617FB02A249462046224400F076
:1048F00025F838B1B9F1000F02D0002D08BF002013
:10490000BDE8F087B9F1000FFAD14FF00109DAE7FD
:104910000123036003F1012343600023C0E9023354
:1049200070474379012B07D10368012B04D100792B
:10493000431E5842584170470020704713B590F805
:10494000B8001446FFF79CFE01A9C0B2FCF7DEFDDB
:10495000014668B922462023019800F02AF904464E
:10496000019800F025F9201E18BF012002B010BDEB
:104970000120FBE75822F0B590F8B83002FB0303A2
:10498000D3F828C0BCF5807F36D85E6DB6F5807F41
:1049900032D8002108460A460D460C46624507D328
:1049A000B04205D3624527D1831B58425841F0BD20
:1049B000AC420CD15F6A07EBC2077F6801323C440E
:1049C0001F6D07EBC0077F6801303D44E6E709D261
:1049D0005F6A022907EBC2077F683C440CD00121C3
:1049E0000132DBE71F6D012907EBC0077F683D44FB
:1049F00002D002210130D1E70020D8E7038B13F069
:104A0000070305D10368002B0CBF0020032070476B
:104A1000022B05D1408BB0FA80F04009800070472E
:104A2000012B05D10368002B0CBF00200520704727
:104A30000020704710B50C4600B111B96FF0150099
:104A400010BD081D00F095F80028F9D1A368032BCC
:104A5000F6D9F3E72DE9F0410D4607461946281D22
:104A600090461E4600F096F8044638B1334642465A
:104A700029463846A446BDE8F0416047BDE8F081CC
:104A800010B44FF02004EFF3118284F31288BFF3C7
:104A90006F8F416110BC0121FCF7AEBB38B50C46ED
:104AA000054658B151B10B6843B14B6833B11C2274
:104AB000002100F057F900202C6138BD6FF015007F
:104AC000FBE770B505460E46FFF7B4FF041E15DB85
:104AD0004FF02003EFF3118283F31288BFF36F8F3F
:104AE0004FF6FF716B8B2C8B8B4204F0070407D1C0
:104AF00082F31188BFF36F8F6FF00A04204670BDF8
:104B0000022C0CD101336B8382F31188BFF36F8FBA
:104B10000023224631462846FFF79CFFEEE7062C8D
:104B200014D8DFE804F004131313041A040000235C
:104B300033606B683BB9C5E90066ACB90221284611
:104B4000FCF75AFBDAE71E606E60F6E782F3118825
:104B5000BFF36F8F6FF00404D0E782F31188BFF3C7
:104B60006F8F6FF08504C9E782F31188BFF36F8FF1
:104B7000C4E7034658B1426802F00302012A03D099
:104B8000032A04D1026812B10020986070476FF0C8
:104B9000150070474268034602F00302032A4FF0F3
:104BA0000002816014BF104600685A607047704769
:104BB0007047002930B4044618460BDBA56808444A
:104BC000A84207D8E0686468214484682468A44641
:104BD00030BC60476FF0150030BC7047002930B41E
:104BE000044618460BDBA5680844A84207D8E068CD
:104BF0006468214484686468A44630BC60476FF0F0
:104C0000150030BC70470029034610B410460ADB7B
:104C10009C680844A04206D8D8685B681944836839
:104C200010BC9B6818476FF0150010BC704708B5A2
:104C3000C0688368DB689847006808BD08B5C0682D
:104C40008368DB689847007908BD70B54C680368D5
:104C5000A34201D2012070BD8A682244934201D34D
:104C60000020F8E74E69D1E90325B54203D36FF080
:104C70000B038B61F4E71B1B42F83530436808696E
:104C800002EBC00253600B6901330B61E2E7FEE700
:104C9000704701F040BF0146006801F03CBF0021B1
:104CA0000120FFF7F6BF08B5FCF7ECFCBDE80840B3
:104CB000FCF74ABD40E800F313F4803FD8B208BFC8
:104CC0006FF0150070477FB50A894E890B684D68F3
:104CD00002F01F0242EA461200938DF8082023F0EA
:104CE0001F036A1E134423F01F030728039304D8ED
:104CF0006946FCF7EDFE04B070BD6FF01500FAE7F1
:104D000010B55AB10139841810F8012B11F8013F80
:104D1000A04201D09A42F7D0D01A10BD1046FCE74D
:104D2000431A934210B500EB020308D3024601393F
:104D30009A420BD011F8014F02F8014BF8E70A44F0
:104D400012F8014D8A4203F8014DF9D110BD10B59A
:104D5000431E0A44914200D110BD11F8014B03F8E3
:104D6000014FF7E70346C9B20244934200D17047AE
:104D700003F8011BF9E70C220369C9B201FB0233F6
:104D8000986F00F0070070474FF02003EFF3118297
:104D900083F31288BFF36F8F036803F0C00343F0FF
:104DA0000203036082F31188BFF36F8F704770B501
:104DB000C9B203694FF02004EFF3118584F3128820
:104DC000BFF36F8F0C2606FB0134A46F14F0C004F0
:104DD00008D0A24206D085F31188BFF36F8F4FF041
:104DE000FF3070BD012206FB01339A6785F31188FD
:104DF000BFF36F8F436803EBC1035B6898470020E4
:104E0000EFE78022FFF7D3BFF8B5069F0469C9B268
:104E10004FF02005EFF3118685F31288BFF36F8FF3
:104E20000C2505FB0144A56F05F0070CBCF1010F33
:104E30000CD1A76786F31188BFF36F8FC4E91C23D9
:104E4000436853F8313098470020F8BD05F0C0059D
:104E5000AF4286F31188BFF36F8F0CBF6FF07700FE
:104E60004FF0FF30F1E713B580240094FFF7CCFF3B
:104E700002B010BD6FF08500704710B41C240069AB
:104E8000CBB203FB0400002110BC1047032001F04B
:104E9000B3BD022001F0B0BD002001F0ADBD032084
:104EA00001F009BE022001F006BE002001F003BEA1
:104EB00008B901230B707047437823B94FF0502392
:104EC0000222C3F8B8257047437823B94FF0502326
:104ED0000122C3F8B825704773B50C4649680546EA
:104EE00059B3D1E90013A06848B3D0E9006038B3E2
:104EF00033B3984227D10133092B24D88DF80130E0
:104F000040F20113ADF80230002320788DF8043010
:104F10008DF8000028698DF80520FFF7D5FF32468F
:104F20006846FEF76BFF01462869FFF7C5FF084694
:104F300002B0BDE87040FDF733B80B46D3E7064634
:104F400001330344D8E76FF0150002B070BD1FB500
:104F5000002291420CBF0623042301A9CDE90122BE
:104F600003928DF80430FFF7B7FF002818BF6FF0E9
:104F7000040005B05DF804FB7FB5FF238DF8033016
:104F80000DF10303002201930123CDE90232052331
:104F900003A98DF80C3001AB04920593FFF79CFF39
:104FA0000028A8BF9DF8030007B05DF804FB38B5E2
:104FB00005460C4601F081FD002D07DBA84205D90E
:104FC000401B84428CBF0020012038BD0020FCE73C
:104FD00070B50C46154601F073FD2946064620467D
:104FE000FFF7E5FFB8B1B4FBF6F306FB134393B943
:104FF000B5FBF6F306FB13536BB9AE4201D90020A3
:1050000070BD01F05DFD06462046FEF7CBFCAD1BF2
:105010003444F9D1F3E76FF01500F1E770B50D46B0
:105020001946284616461C46FFF7C1FF38B124B181
:10503000224629463046FFF78AFE002070BD6FF0F9
:105040001500FBE72DE9F0470024836886B0884609
:1050500091461B6902AA01A99847A2462546029BD0
:10506000AB4202D806B0BDE8F0870026019F07EBEF
:10507000C5077B6804933A680AEB0603B24202D87C
:105080009A460135EBE749460394059303A8C047C8
:105090000028E7D0049B01361C44ECE730B5436898
:1050A0001360057A446804EBC504A34202D36FF091
:1050B000010030BD5C798C4201D00833F0E700205C
:1050C000F7E7002200F150039B009BB203F150234D
:1050D00003F580331A601B687047704700207047E3
:1050E00008B5FDF7FBFB08BD01207047012801BF93
:1050F0000323487008710B7005BF00208B700120DE
:10510000CB707047012801D1FDF75EBE00207047CB
:10511000FFF750B908B5FCF751FAFFF7B9FDBDE844
:105120000840FFF747B98068183820F007001038AA
:105130007047042809D0052803D1481E18BF012054
:105140007047431A5842584170470120704738B59C
:1051500015460C4661B15AB1FFF770FD2146254452
:1051600011F8013B834203D1A942F9D1012038BD96
:105170000020FCE738B50C460123114622460546BF
:10518000FFF717FD00280FDB012221462846FFF715
:10519000DEFF38B92378012B14BF0223012300203E
:1051A000237038BD0323FAE70120FAE78268183A32
:1051B00022F00702FFF7DEBF13B50C46C0B201A90B
:1051C000FCF7A4F950B921460198FDF745FE0446C5
:1051D0000198FFF7EDFC204602B010BD0124FAE76C
:1051E0000020704770B50368CD1A002D02DC6FF007
:1051F0005F0070BD93F900601C78002E0ADB5C1C18
:1052000004601B7813600368C91A13688B42EED8D8
:105210000020EEE704F07F04013C032C2BD8DFE8EC
:1052200004F0020A1421012DE1D05B7813600368B9
:1052300002330360E7E7022DD9DDB3F801305BBA32
:105240009BB2136003680333F3E7032DCFDD9C7833
:105250005D782402DB7844EA054423431360036845
:105260000433E6E7042DC2DDD3F801301BBA136026
:1052700003680533DDE76FF06300BAE770B40468D4
:105280000E1B002E07DD26789E4208D101340460F3
:1052900070BCFFF7A7BF6FF05F0070BC70476FF086
:1052A0006100FAE773B50223154601AA0446FFF729
:1052B000E5FF40B9019E28463246216800F0EFF82C
:1052C00023683344236002B070BD2DE9F8430646DD
:1052D0000F461546984600244FF00C0941462046DB
:1052E00001F017F909FB0471C2B2304601F029F947
:1052F00010B90134A542F1D1BDE8F8831FB5069C71
:10530000CDE902345368019393680093D1E90132E7
:10531000014601F0A4F804B010BD0023012283600F
:10532000C0E90023704710B5044668B1806830B109
:1053300061688900FFF796F8A068FDF7DDFF00239C
:105340000122C4E90023A36010BD42F21073994208
:1053500070B504460D4602D96FF00F0070BD43686A
:105360008B4201D30020F9E704212846FDF7BEFF58
:1053700006460028F0D0A16859B162689200FFF794
:10538000E6FC6168A0688900FFF76CF8A068FDF78B
:10539000B3FFC4E90156E5E738B504460D4619B92F
:1053A000FFF7C1FF002038BD42688A4207D10021C3
:1053B00080689200FFF7D6FC01232360F2E7FFF735
:1053C000B2FF29462046BDE83840FFF7BEBF8842FD
:1053D00070B505460E4609D04968426841B92AB100
:1053E0000123920003608068FFF7BCFC002070BDC1
:1053F0004C1E84B93368013494422B6012D9214683
:105400002846FFF7A2FF0028F1D1B168A868A200E2
:10541000FFF79DFCEAE7B36853F82430002BE9D18D
:10542000013CE6E7A868121B0021920000EB840013
:10543000FFF798FCE9E770B50C4601210546FFF738
:1054400084FF064678B96A6801469200A868FFF7AB
:1054500089FC002CB4BF4FF0FF320122A968B8BF0D
:1054600064420C602A60304670BD4368B1EB431F54
:105470003FBF83684A0953F8220001F01F013ABF79
:10548000C84000F0010000207047D0E9011000F092
:105490000BBE08B5FFF7F9FF0730C00808BD70B5AF
:1054A0000E4612F0030118BF012101EB92010546DF
:1054B0001446FFF771FF38B9D5E90110234632468B
:1054C000BDE8704000F03ABE70BD13460A46D0E910
:1054D000011000F058BEF8B505460E464C0901F023
:1054E0001F07FFF7D2FF6B683044B0EB431F05D8AE
:1054F0001F2E0FD8002F41D100200AE010F01F010D
:1055000018BF012101EB50112846FFF71EFF0028AC
:10551000EED0F8BD6FF003006B68604319469A0047
:10552000A142A2F104020CD8E21A9C4288BF0022D8
:10553000134400229B00043B191DDBD0A968CA500C
:10554000F9E7AE68013906EB020C5CF800C046F8DA
:1055500002C0E5E7AB6853F8241001FA07F043F8FE
:105560002400A86850F82430134340F8243021FA6E
:1055700006F201346B68A342ECD8BDE70022C7F104
:105580002006F7E708B50A46416811B1806800F0C7
:105590002CFE002008BD10B542683AB94B6873B9BB
:1055A000B2B9181E18BF0120404210BD836803EB3A
:1055B000820353F8043C002BF0D1013AEDE78C68EC
:1055C00004EB830454F8044C002CE9D1013BE6E7DA
:1055D0009A4210D811D3013A836853F822408B685D
:1055E00053F822309C4206D802F1FF3205D3531CF7
:1055F000F2D10020D9E70120D7E74FF0FF30D4E700
:10560000024630B5436823B9486858B9002B36D1F3
:105610002FE0906800EB830050F8040C0028F3D1D1
:10562000013BF0E78C6804EB800555F8045C15BB82
:105630000138EAE70D6802D20868404220E01068AD
:10564000002803DD002D07DA012019E0002D03DD1D
:1056500010B14FF0FF3013E0013B916851F8235037
:1056600054F823108D420BD803F1FF33E5D3591CB6
:10567000F3D1002004E0002BDED08342DAD9106899
:1056800030BD1FB50029B6BF4FF0FF33012349429B
:10569000CDE90013012301A90293CDF80CD0FFF747
:1056A000AFFF05B05DF804FB90422DE9F0410546DF
:1056B0000F46144602D0884206D1274601232B60AC
:1056C0007C683CB9002003E0FFF781FE0028F4D09D
:1056D000BDE8F081BB684FEA840803EB840353F80C
:1056E000043C0BB9013CECE721462846FFF72DFEB0
:1056F0000028EDD1AE682346BA683146304600F046
:10570000AEFD074606EB0803002FDBD06A68661C77
:10571000A24208D831462846FFF717FE0028D7D105
:10572000AB6803EB84031A683446D2192CBF0127F7
:10573000002743F8042BE7E72DE9F04105460E4624
:10574000904654683CB97168A1420ED26FF00907C7
:105750003846BDE8F081D8F8083003EB840353F8ED
:10576000043C002BEFD1013CECE72846FFF7EDFDB0
:1057700007460028ECD17268944209D2B168A86843
:10578000121B920001EB840100EB8400FFF7DFFAAB
:105790006A687068824207D9AB68121A00219200C9
:1057A00003EB8000FFF7DEFAD8F808202346B16843
:1057B000A86800F06AFD024610B901232B60C7E714
:1057C000A9686B6801EB840108461B1B00F090FE82
:1057D0000028F2D0BAE72DE9F84316680C68814634
:1057E00006FB04FC664673430D4617461BD511465F
:1057F0002846FFF7D0FEB0F100080DDB3A462946F7
:105800004846FFF799FF90B9B8F1000F08BF01248F
:105810000020C9F800400AE02A464846FFF78CFFFE
:1058200028B96442F4E7FFF73FFF0028F0D0BDE855
:10583000F8830123FFF7CFBF4FF0FF33FFF7CBBF54
:105840002DE9F3410546884616464F683FB1D8F822
:10585000083003EB870353F8043C3BB146B9002101
:10586000284602B0BDE8F041FFF7E5BD013FEDE796
:105870002846791CFFF769FD044670B94146284661
:10588000FFF7A5FD044640B9013E00963B46D5E929
:105890000110D8F8082000F015FD204602B0BDE840
:1058A000F0812DE9F04F83469DB00F461846002148
:1058B00016460393FFF7E5FE002800F087810323D7
:1058C000002401251793304619AB0399CDE90A54FA
:1058D000CDE90C45CDE90E44CDE91054CDE9124592
:1058E000CDE9144416951893FFF755FEA04228DA27
:1058F000BBF1000F05D1E7B9002420461DB0BDE87B
:10590000F08F21465846FFF796FD04460028F2D056
:105910000AA8FFF708FD0DA8FFF705FD10A8FFF77F
:1059200002FD13A8FFF7FFFC0C2119A8FEF79AFD52
:10593000E3E731463846FFF74AFD04460028E7D141
:10594000DAE731460AA8FFF742FD04460028DFD116
:1059500003990DA8FFF73BFD04460028D8D17168D4
:1059600010A802310D950A95FFF7EFFC04460028B8
:10597000CED1014610A8FFF75EFD04460028C7D12E
:10598000716813A80231FFF7E0FC04460028BFD17C
:105990000DA8FFF77AFD00F01F001F2870D0C0F19E
:1059A0001F0319460AA80193FFF795FD0446002836
:1059B000AED101990DA8FFF78EFD04460028A7D1AE
:1059C0000B9DDDF838800DA8A5EB080A4FEA4A19AF
:1059D0004946FFF780FD0446002899D14FEA8A0A1C
:1059E0000DA90AA8FFF70CFE00284BDA49460DA8BE
:1059F000FFF7C8FD044600288AD108F1FF3305935C
:105A00009B0005F1FF3A069305F1804508F18043BC
:105A1000023B013D9B00A5EB08050893AB000293F8
:105A2000059B9A453DD8BBF1000F0CD0584610A9F4
:105A3000FFF7CDFC002840F0C580039A3368126858
:105A40005343CBF80030002F3FF462AF01990AA80E
:105A5000FFF798FD002840F0B58033680AA9384662
:105A60000A93FFF7B4FC0146002840F0AD803846A9
:105A7000FFF707FE00287FF44BAF01233B6047E7A9
:105A800001949DE7129A0AA952F80A300846013398
:105A900042F80A300DAAFFF7CFFE044600289FD037
:105AA00036E70F9B069A04931344DDF83090079372
:105AB000049B4FEA8A089A5859F82A10A8F104035F
:105AC000129D0993029B91421D4476D2A8F10400D5
:105AD000002359F80000FAF73DFB002914BF4FF0EE
